:020000040800F2
:10000000F8090020C9000008EF0000086707000891
:1000100000000000000000000000000000000000E0
:10002000000000000000000000000000F3000008D5
:100030000000000000000000F5000008E90A0008C8
:10004000F9000008F9000008F9000008F9000008AC
:10005000F9000008F9000008F9000008F90000089C
:1000600000000000F9000008F9000008F90000088D
:10007000F9000008F9000008F9000008F90000087C
:10008000F90000080000000000000000F90000086E
:1000900000000000F9000008F9000008F90000085D
:1000A00000000000F9000008000000005D0D0008DD
:1000B0000448854600F0BCF900F048F800480047C5
:1000C0003D2E0008F80900200C4880F308880C48F1
:1000D0000168090E0B4A914205D10B480B4901609A
:1000E0000B480C4901600C4880470C480047FEE76C
:1000F000FEE7FEE7FEE7FEE7FEE70000F809002066
:10010000040000001F000000181002400100000061
:100110000000014000000000ED0A0008B1000008E6
:1001200030B50B46014600202022012409E00D468F
:10013000D5409D4205D31D469540491B2546954017
:1001400040191546521E002DF1DC30BD70B5054C2E
:10015000054D03E0206800198047241DAC42F9D109
:1001600070BD0000C03C0008C43C0008F8B5024661
:100170004A40D40F42004B0052085B089A4202D218
:100180000246084611464A0023D0C30D4A00DDB29C
:10019000120EAD1A202D35DA49020126490AF6055C
:1001A0008A19002C00D0524220214F1B1146B94021
:1001B0002A411018C20D9A4221D0002C17D0012DCF
:1001C00008DCDA05801AD20F8019D207DBB200F002
:1001D000F5F8F8BDDA05801A012340001B06C018A7
:1001E00080185A428018CA0F1043490007E0490896
:1001F000C2071143DA05801A80194008801800F000
:10020000D5F8F8BD61000122511A001BF7E7012261
:10021000D2075140AAE70122D2075040A6E7024682
:1002200070B54A40D30FDB0740002DD04A002AD0DA
:10023000010E140E000212020919400A520A841813
:10024000E50104465443000A120A2E045043A4193F
:100250004219200CC543AA18120C0125AD03521CEB
:10026000521912047F39240400D0521C104301D4C7
:100270004000491EC2B20C06C0092018401C4008AC
:10028000802A02D003E0002070BD40084000002911
:1002900000DA0020184370BD70B502464A40D50F01
:1002A00040004A00ED0740085208002814D0002AF8
:1002B00012D0C40DD30D41020120C0055202490ADB
:1002C000520AE41A091812187D34914201D3641CB1
:1002D00000E04900002C01DA002070BD00239142AB
:1002E00001D3891A0343400849000028F7D10029A7
:1002F0000AD0914202D10121C90705E0914201D201
:10030000012101E00121C943E005C018401900F0B6
:100310004DF870BD420005D04200120E52428A4292
:1003200001DB00207047C90508187047C217C10FCC
:10033000504010B54018CA079623002100F03EF83F
:1003400010BD10B500229623114600F037F810BDFD
:10035000C20F410040020123400ADB05D207090E0B
:10036000C0187F2901DA00207047962903DC962304
:10037000591AC84001E096398840002AF4D040421A
:10038000704700000122D207002800DB101A002964
:1003900000DB511A814270470122D207002800DB9E
:1003A000101A002900DB511A88427047002904DA2C
:1003B000401C490001D140084000704770B400243F
:1003C000050C05D11024000402D1002921D01124EC
:1003D000050E01D100020834050F01D10001241DD2
:1003E000850F01D18000A41C002801DB4000641CA3
:1003F000002908D020252E1B0D46F540A14000D035
:1004000001212943084301061B1B000ADB1D02D5FD
:10041000002070BC7047DB05181880180029F8DA36
:10042000401C4900F5D170BC4008400070470000F6
:10043000064C0125064E05E0E36807CC2B430C3C37
:1004400098471034B442F7D3FFF736FEA03C0008BB
:10045000C03C000870B58C180578401C6B075B0F1A
:1004600001D10378401C2A1106D10278401C03E018
:1004700006780E70401C491C5B1EF9D12B0705D471
:100480000023521E0DD40B70491CFAE70378401C60
:10049000CB1A921C03E01D780D70491C5B1C521E88
:1004A000F9D5A142D8D3002070BD836A0B43836283
:1004B000426170470029816801D0012200E00222D8
:1004C0001143816070470029C16802D001221143A5
:1004D00001E049084900C1607047C26802239A439D
:1004E000C260C2680A43C26070478268002101236B
:1004F000DB071A4382600F231B038268491CD20F5B
:10050000D207994201D0002AF7D18168002901DB86
:10051000006C70470020704730B5C268084B8C688B
:100520001A400B680D792343CC686D032C43234399
:100530000C69496923430B431343C36030BD00007A
:1005400003D2FFFF816804221143816070470021BC
:10055000016001718160C16001614161704700000B
:100560000122054992050028886801D0104300E067
:10057000904388607047000000270140002901680F
:1005800002D00122114301E0014A1140016070478D
:10059000FEFF000030B503680C4A0C6A13408A68FD
:1005A0004D6922430C692C4322438C692243CC6958
:1005B00022434C6A22438C6A22431A430260CA686F
:1005C00042600A6882604968C16030BD0F80FFFFE9
:1005D000F0B50B2706463F04384600F067F80428BC
:1005E0000FD1084C206902252843206166612069EB
:1005F000402108432061384600F058F82169A9439A
:100600002161F0BD0020024008490420CA68D207D9
:1006100001D001207047CA68D20601D50220704778
:10062000C9684907FBD5032070470000002002403D
:100630000248016980221143016170470020024095
:10064000F8B5064600200B273F0400900D463846BB
:1006500000F02CF8042815D10B4C20690121084327
:1006600020613580384600F021F8042806D1B61CF8
:10067000290C00963180384600F018F821694908A5
:1006800049002161F8BD00000020024004480169D2
:10069000090603D5034941600349416070470000E2
:1006A0000020024023016745AB89EFCD00B503462A
:1006B000FFF7AAFF02E0FFF7A7FF5B1E012803D0A8
:1006C000002B00D1052000BD002BF4D1FAE7F0B5D6
:1006D0000022032501230C6893401C409C422AD130
:1006E0000C79012C01D0022C12D1876854002E46BF
:1006F000A640B74387604E79A6408468264386604B
:1007000084889C43848084888B7993401C438480B4
:10071000066853002C469C40A64306600E79076885
:100720009E403E430660C668A643C660CC799C40A6
:10073000C3681C43C460521C102ACBD3F0BD4B07C6
:10074000DB0E9A40C90810B589000818016A0F2409
:100750009C40A1430162016A1143016210BD018501
:10076000704781617047052001F032FC0029016863
:1007700002D00122114301E049084900016070479D
:10078000012292030029416801D0114300E0914306
:10079000416070470246926900200A4200D0012061
:1007A0007047000010B502685208520002600268EB
:1007B000134B8C681A4024024B6814432343036094
:1007C0000F230A681B069A430261026801231A4339
:1007D000026000228260C2600B698A691A438260EB
:1007E00082680123DB031A438260CA6803681343EB
:1007F00003604268034B49691A401143416010BDD0
:10080000FFE0CF00FF7FFF07406AC0B27047816200
:100810007047000070B5049D44688905890D120475
:10082000034E11431943344029432143416070BDB5
:10083000009800FC30B5827801240178002A15D098
:100840008B080E4A9B009A1813688907C90EFF256A
:100850008D40AB434578AD072D0E8D401D4315608F
:100860000078C006C00E8440054804E0C806C00EEB
:10087000844003488030046030BD000000E400E0A4
:1008800000E100E070B5FF2500210446AD05C94335
:10089000FFF740FD06460F4960100C1A214630460E
:1008A000FFF7BDFC2146FFF7BAFC2946FFF7B3FC72
:1008B0002146FFF7B4FC044601463046FFF7AFFC83
:1008C0002146FFF7ACFC2946FFF7A5FC2146FFF7C0
:1008D000A6FC70BDDF59375F044A0029516901D079
:1008E000014300E081435161704700000010024065
:1008F000044A0029D16901D0014300E08143D1615C
:100900007047000000100240044A0029916901D09C
:10091000014300E0814391617047000000100240F4
:10092000F8B5464E0446716800200C22444D114033
:1009300005D0042903D0082903D00C2918D025603C
:1009400018E07168706803228902D2030F0F10400B
:10095000BF1C002809D0F06A0107090F2846491C6E
:10096000FFF7DEFB7843206004E036487843FAE77F
:10097000354921607168354F0906090F7B5C216894
:100980000A46DA40626073685B055B0FFB5CDA4025
:10099000A260336BDB0501D42D4B05E073685B046B
:1009A00001D4530800E09308E360336B5F06294BE2
:1009B00003D4284F1237276100E02361376BFF060D
:1009C00001D4656100E06161376BBF070ED0376B02
:1009D000BF07BF0F012F0BD0376BBF07BF0F022F11
:1009E00008D0376BFF43BF0706D006E0A26104E0E2
:1009F000A16102E0A36100E0A561376BBF03BF0FF7
:100A00000FD0326B9203920F012A0CD0316B890305
:100A1000890F022909D0316B8903890F032906D078
:100A200006E0E26104E0E16102E0E36100E0E5612B
:100A3000316B090600D404482062F8BD0010024062
:100A400000127A0000093D00006CDC02FD0100206C
:100A5000809FD5000080000004490A6B10239A4350
:100A60000A630A6B02430A637047000000100240E9
:100A7000044A0029116801D0014300E0814311605C
:100A800070470000000001400CB50020009001906C
:100A90001349112008601348416841604168416072
:100AA00041687B22D2039143416041680522D20410
:100AB000114341600168012212061143016001687F
:100AC0008901FCD54168890889004160416802229A
:100AD0001143416041680907890F0229FAD10CBD11
:100AE00000200240001002407047000010B514487A
:100AF00001680122114301604168124A11404160BE
:100B00000168114A11400160016801229204914379
:100B1000016041683F22120491434160C16A0909A2
:100B20000901C162016BFF22543291430163416BA1
:100B300049084900416300218160FFF7A5FF10BD0E
:100B4000001002400CB8FF08FFFFF6FE00290188E4
:100B500002D00122114301E0490849000180704799
:100B600040300029818803D00122D203114301E0E3
:100B70004904490C8180704770B5028C52085200BC
:100B80000284048C8288038B7025AB439B080D88FC
:100B90009B001D4302239C438E894B882643104CA7
:100BA0003343A04208D00F4CA04205D00E4CA042C7
:100BB00002D00E4CA0420DD10824A343CC891C4383
:100BC00004239C438B882343094C22400C8A144302
:100BD0004A8A22438280058389684163038470BD09
:100BE000002C014000400140004401400048014009
:100BF000FFFC000070B5028C10239A430284048C21
:100C00008288038B1A4D2B400D782D062D0C1D4329
:100C100020239C438B891B051E0C4B8826431B05F8
:100C20001B0C144C3343A04202D0134EB04219D1D6
:100C3000124E32400E8AB604360C3243A04211D115
:100C40008024A343CC892405240C1C4340239C43CB
:100C50008B881B051B0C2343094C22404C8AA4049F
:100C6000240C22438280058389688163038470BDDC
:100C7000FF8C0000002C014000400140FFFB000001
:100C8000FFF7000030B5028C124B1A400284058C2D
:100C90008288838B104C23400C782406240C1C4340
:100CA0000E4B1D400B7B1B071B0C2B438D782D0718
:100CB0002D0C1D430A4B984205D10A4B13400A8A5A
:100CC0009205120C1A43828084838968016405842A
:100CD00030BD0000FFEF0000FF8C0000FFDF0000D0
:100CE000002C0140FFBF000010B50288144B984251
:100CF00006D00124A407A04202D0124CA04203D186
:100D00007024A2434C8822430F4CA04203D00F4CC6
:100D100022400C89224302804A68C2620A88028506
:100D2000984208D00A4A904205D00A4A904202D01E
:100D3000094A904201D1897A01860121818210BD40
:100D4000002C01400004004000100040FFFC0000A7
:100D5000004001400044014000480140F8B51C48F3
:100D6000426980691B4CE169884201D20D1A01E099
:100D7000121A5518E0610821174800F03FF80026C4
:100D8000002804D00821144800F02CF826701348DD
:100D9000134F854201D9267002E02078032801D242
:100DA000052001E07878801CC5B22078A8420AD2DC
:100DB000094800F08DF821787854491CC8B2207099
:100DC000A84201D26661F8BD012060612670F8BDBD
:100DD00000E000E098000020003801404C040000D2
:100DE000EC030020016270470029016802D0012253
:100DF000114301E049084900016070470246D26989
:100E000000200A4200D00120704710B50B041C0ED0
:100E100001238B40022C02D0032C02D002E0001DE3
:100E200000E008300168002A01D0194300E099432E
:100E3000016010BD30B50446006889B00D46400819
:100E4000400020606068032109038843A9680143CA
:100E5000616020681A49EA680840696811432A6994
:100E6000024311432160A068032109028843696994
:100E70000143A1606846FFF753FD1248844201D147
:100E8000069805E01048844201D1079800E00298D6
:100E900021680904296800D54000FFF741F92A6854
:100EA00052088A4200D8401C2168090404D5010771
:100EB000064A490F10400843A08109B030BD000028
:100EC000F3E9FFFF0038014000440040F0FF00005C
:100ED000808CC005C00D70470146034888600348F8
:100EE000C8600846704700000AD7A33C249A843D96
:100EF0000146034888600348C86008467047000000
:100F00000AD7A33C249A843D002101607047FFB5B5
:100F100081B01C4617460E0007D0019D02E028460E
:100F2000B047ED192046641EF9D2019805B0F0BD16
:100F300002E008C8121F08C1002AFAD170477047A2
:100F4000002001E001C1121F002AFBD17047000000
:100F500010B5032310220B490B48FFF7D8FF0A48AE
:100F60000323102209493030FFF7D1FF0848002140
:100F7000016005480323082206496030FFF7C7FFD8
:100F800010BD0000D90E000884040020F10E0008F6
:100F900020010020090F0008F8B5154E4520000675
:100FA00037460025183FB06002F0CEFC0024A000B8
:100FB000395880190F4A01F080FE641C032CF6DBBF
:100FC00001F0F4FAFF20F5306D1C8542ECDB452181
:100FD0000906B068FFF71BF9074D0024B060A000B8
:100FE0008019294601F056FE641C032CF7DBF8BD7E
:100FF000440400201F856B3F0000FA4370B592B097
:10100000202503206946069508770024CC7709201F
:1010100006A9C006FFF75BFB01214802FFF774FC3D
:1010200001210846FFF758FC2948069029480790F7
:101030000220099080200B9040000C9008948000C2
:101040000E950D900A94C000234D0F9006A91094A0
:101050002846FFF79FFA1E4E0221403E3046FFF71A
:101060003CFA01213046FFF72EFA6846FFF76FFA87
:1010700001206946009408710420059002940494AC
:101080003046FFF749FA0121072249043046FFF7AD
:101090000CFA072220213046FFF707FA0120FFF75C
:1010A0005FFA3046FFF721FA01213046FFF702FAD6
:1010B0003046FFF747FA01212846FFF75FFA074855
:1010C0000088FFF73EF90349486012B070BD000088
:1010D00040240140E401002008000240BAF7FF1F4D
:1010E00010B50B49002803D0012808D0002010BDFE
:1010F0000888FFF726F90749FFF791F810BD4888DF
:10110000FFF71FF9014602484068FFF7C5F810BD18
:10111000E401002067661E3BF0B58400304887B0CC
:1011200005597F2168004008C9050290FFF773F850
:1011300006462946FFF773F82949303909680191B5
:10114000FFF76DF8059029460298FFF768F82449E3
:10115000203909680091FFF762F8074620480830F7
:1011600001592846FFF753F81D49049028390968AA
:10117000FFF755F83146FFF752F81A49096803910D
:10118000FFF74DF80599FEF7F1FF154906461039AE
:101190000851083904980968FFF741F80299FFF7E8
:1011A0003EF80399FFF73BF83946FEF7DFFF0C499D
:1011B0000839085101463046FEF7D8FF084E103670
:1011C000305130460838055100990198FEF7CEFF9E
:1011D0000146A01901F05EFD305907B0F0BD0000D6
:1011E000580100208C010020F8B505460C46480047
:1011F00000D1294C01210026C9078D4203D94C405A
:101200004D408126F605002C09DC204648402C463E
:101210000546012189073046FEF7A8FF064621460C
:101220002846FFF7B9F810D821462846FEF7EFFF09
:10123000074621462846FEF799FF04467F213D4692
:10124000C9053046FEF792FF064621462846FFF7BD
:1012500023F804461149FEF7E2FF1149FEF786FF25
:101260002146FEF7DCFF0F49FEF780FF2146FEF71F
:10127000D6FF04460C493046FEF7D1FF2146FEF763
:1012800075FF0A49884202DD0949FEF7C0FF094996
:10129000FEF7C5FFF8BD0000567C0A2A4BC887BD83
:1012A0007EAE36BE42DA833FDB0F493FDB0F49405B
:1012B000DB0FC940E12E654270B5002506462C467D
:1012C000A00030580146FEF7AAFF2946FEF74EFF60
:1012D000641CE4B20546032CF2D3FFF7D3FA0146AF
:1012E0007F20C005FEF7D8FF70BD0000F8B51D4D8A
:1012F0000C216E68074632464A431B49184853186A
:101300002A6894001959002F02D0491C195102E093
:10131000491E16481951002E06D1002A01D0012A73
:1013200002D10F49FEF77BFF0021C943FEF7F2FF10
:10133000AE683159FEF71AFF002800DD30512968E8
:10134000002902D1002800DD706068680C2250433B
:10135000054A890080184058002800DA4042F8BD4C
:10136000CDCCCC3D7001002038050020CDCCCCBDCB
:1013700030B5002207239C1A6418203C855CE47F6A
:10138000A54201D0002030BD521C072AF3DB01200A
:1013900030BD0000F8B5654FB869002804DA0124B3
:1013A0007C6000F0B9FDBC60B869002801D1012063
:1013B0007860386A786200F01DFD796A386A884280
:1013C00002D001F0F3F8B86201F0F0F8B96A002633
:1013D000401A5749884201D9BE61F8BDB869012851
:1013E000FBD138695349401E884200D2BE60524D3D
:1013F0002868FEF7A6FF5149FEF709FF5049FEF79E
:101400000EFF504C206000906868FEF79AFF4B4931
:10141000FEF7FDFE4A49FEF702FF6060E868FEF74E
:1014200090FF4649FEF7F3FE4549FEF7F8FEA0603F
:10143000A868FEF786FF4449FEF7E9FE4349FEF738
:10144000EEFE7F21C905E060884201DDE16004E035
:101450000121C907884200D9E6603D4DE87800289F
:1014600026D0287A0028E87903D0002803D139490A
:1014700002E000280AD03849009802F06DF9206097
:101480003549606802F068F9606004E0314900980D
:1014900002F062F920602F49A06802F05DF9264948
:1014A000A060244A0869C93290420ED901200DE09B
:1014B0002949009802F050F920602749606802F03D
:1014C0004BF960602549A068E7E70020287048696B
:1014D000904201D9012000E00020E8708869904224
:1014E00001D9012000E000202872C869904201D98A
:1014F000012000E00020E871086A904201D9012033
:1015000000E00020A870486A904201D9012000E064
:101510000020A8713869642800DC5EE70120F860CB
:101520007E60B86065203861F8BD0000980000203A
:1015300040420F0083030000AC03002000A077446A
:101540004EC4A43A9C03002000003F434EC4243AFA
:10155000CC020020CDCC0C3FCDCC4C3F9A99193F0A
:1015600000B502F07BF900BDF0B57F208BB0C0055F
:10157000FC490490897B002902D13F21090604918E
:101580000024F94F2646F948A500405978517F219B
:10159000E819C90501F07EFB7859F5494200520867
:1015A0008A4201DC7E510FE00122D207904204D82A
:1015B0007F22D2050023009203E0EE4A0023EE4989
:1015C000009201F03FFE7851641C032CDBDB01F03C
:1015D000DBFFE54C04982168FEF721FEE74D294624
:1015E000FEF71DFEE64F3946FEF719FE01906168D1
:1015F0000498FEF714FE2946FEF711FE3946FEF761
:101600000EFE0290A1680498FEF709FEDD49FEF780
:1016100006FE3946FEF703FE0390D248DA4DC07845
:101620000C3C002803D0D9480068002834D0D848A2
:101630000199016002994160039900278160D248B5
:10164000BD004159D2484059FEF7E1FD7F1C605171
:10165000032FF4DB02F0AEF8002001F03BFE012086
:1016600001F038FE022001F035FEBE48C94B027879
:10167000C948CA490127CA4D002A7DD0BB4AD4684F
:10168000C84A944202DD0A68002A76D01A68012A04
:10169000FBD007600F604FE10021B34802F0EEF984
:1016A000C14F03997868FEF7BAFD049001213868AC
:1016B000C90748400399FEF7B2FD0590B868039941
:1016C0000746FEF7ACFD0690B8480990B848089068
:1016D000B8480090A348B849027AC079002A7DD062
:1016E000002814D003C94700490049087F0838463C
:1016F0000791FEF751FE00D9079F08993846FEF77B
:1017000041FE16D838460899FEF7C6FD13E00120C1
:10171000C007874237D8A9480168A948016000205E
:10172000FFF7FAFC0499FEF721FD2968FEF76FFD2B
:101730004DE07F20C00508908B4800990068470065
:101740007F083846FEF71EFE05D838460099FEF79A
:10175000A3FD074601E07F27FF0508990998FEF7DA
:101760005EFD009097483946FEF759FD0099FEF757
:10177000FDFC07468C4801E0D3E0DAE081680120F7
:10178000C007814202D929680198CFE78B480168D8
:101790008B48016029680198FEF739FD3946FEF74C
:1017A0003EFD00907F203946C005FEF730FD07461C
:1017B0000020FFF7B1FC0499FEF7D8FC2968FEF77A
:1017C00026FD3946FEF72BFD0099FEF7CFFC206081
:1017D00069680298FEF71BFD606000E001E0A968FF
:1017E0009AE000287ED07F200027C0050999FEF7E7
:1017F0000EFD0A90704903C940004C00640840087F
:1018000005462146FEF7C8FD00D82C46204608991B
:10181000FEF7B8FD04D820460899FEF73DFD01E02B
:101820007F20C00507905048BC0000590099450032
:101830006D082846FEF7A6FD05D828460099FEF754
:101840002BFD054601E07F25ED0507990998FEF778
:10185000E6FC079029460A98FEF7E1FC0799FEF797
:1018600085FC0790504881680120C007814206D955
:101870004548015901A80059FEF7C9FC24E04F482A
:1018800001594F4801514048015901A80059FEF73C
:10189000BEFC0799FEF7C3FC05467F20C0050799EB
:1018A000FEF7B5FC07903846FFF736FC04A9095946
:1018B000FEF75CFC34490959FEF7A9FC0799FEF7CD
:1018C000AEFC2946FEF752FC27497F1C0C39085113
:1018D000012F8FDD2C4881680698FEF798FC22497D
:1018E0000C3900E001E08860B4E600273348BD0011
:1018F0004159334841513846FFF70EFC04A9495974
:10190000FEF734FC20494959FEF781FC7F1C6051E9
:10191000012FEBDD1C4881680698FEF778FCA0607B
:1019200098E6066028480068012800D11E60EE6134
:1019300054E0264A06601760EF61006800284DD029
:10194000380050D022492046FEF769FC2149FEF7B5
:101950000DFCA8611348844255DD1F480168002929
:1019600050D050E0CC0200205C0200209C030020FC
:101970000AD7233C000080BF0AD723BC000057448D
:1019800035FA8E3C0000FA4338040020FC000020A9
:10199000A40500205C0000206C00002070000020E6
:1019A00000000020CDCCCC3DF00000209A99993E5B
:1019B00000005C423333733F680400205C04002065
:1019C000580100203333333FA40000203C000020A6
:1019D00077BE7F3F6F12833A68000020D548AE6122
:1019E00006600E600FE0D4498C4203DAD148AE6144
:1019F000066008E02046FEF70AFCD049FEF70FFC1F
:101A0000A861CC480760CE480079002819D0CD499C
:101A1000AE61CD4B0868984211D2CC4A90420EDAA2
:101A2000486898420BD2904209DA8868984206D2F8
:101A3000904204DAC868002801DD904201DBC44806
:101A40000760C4480068002803D1C348A9698142DF
:101A500023DA6868002807D000F0A8FD6968401AFA
:101A6000BE49884200D96E600024E0B2002101F036
:101A700043FE641C032CF8DDB94C00212246B94812
:101A800001F01BF9B74822460021001D01F015F9AD
:101A9000AE612F602E620BB0F0BD0020286000F018
:101AA00085FD6860B0480068002802D0AF48C06873
:101AB000A861AF480024006801283FD1AD48AF4E6F
:101AC0000168AD48814205DAFEF7A1FB3146FEF719
:101AD000A6FB0446AA480168AA48814205DAFEF737
:101AE00096FB3146FEF79BFB04467F20C0058442EF
:101AF00001DD044601E0002C07DDA3492046FEF786
:101B00008EFB6969FEF732FB03E093496869FEF7D3
:101B10007EFB3F2109066861884201DD696105E0BD
:101B20000121C907884201D90020686120466969FE
:101B3000FEF71CFBA969FEF76EFBA8619348944E63
:101B400000680890002804D10121B068C907484006
:101B5000B0603068009001468248083880690746C6
:101B6000FEF755FB099075682946FEF750FBB468EF
:101B70002146FEF7FBFA079038460099FEF7F6FA81
:101B800007462946FEF743FB2146FEF740FB05903A
:101B900029460998FEF7EAFA2146FEF738FB069037
:101BA00038462946FEF7E2FA2146FEF7DFFA0490AE
:101BB0000898002803D10120C0074440B4600020E9
:101BC000401C0328FCDD0020634F044604AE009057
:101BD000A50070590099FEF7DFFB01D27059009003
:101BE00070593946FEF7CEFB00D27759641C042C9D
:101BF000EEDB7F21C9050098FEF709FB3F252D0686
:101C0000A84200DD2846574C083CA168FEF7C4FBFB
:101C100004D26049A068FEF7A9FA03E05E49A06813
:101C2000FEF7F5FA4C4FA060A84201DDA56003E085
:101C30005A49884200D9A1604A4801210838806881
:101C4000C907884200D956485649FEF7E8FA0028E5
:101C50000DDD3946FEF78AFA07460024A5007059C3
:101C60003946FEF7D4FA641C7051042CF6DB314877
:101C7000006801281ED100252C46A700F0592946EE
:101C8000FEF780FB00D2F559641C042CF5DB4648B6
:101C9000854201D9054603E00120C007854209D9E4
:101CA0000024A700F0592946FEF7B1FA641CF05150
:101CB000042CF6DB2B48002108381F4F0D467F1EF1
:101CC0000162AC0031590120C007814201D90020D6
:101CD00003E07F20C005814200DD30513348315997
:101CE000FEF79DFA3946FEF741FA305101F0C7FA86
:101CF0000146E8B201F000FD30590121C9078842D0
:101D000002D90020305104E07F21C905884200DD5E
:101D100031513159134C083C206AFEF727FA6D1CEB
:101D20002062032DCDDD0121C943206AFEF7F2FABE
:101D30002062B0E668000020CDCC4C3D9932873F50
:101D4000CC0200209C030020A4707DBFA4707D3FC6
:101D50003C0000209C0000206F12833A40420F009C
:101D6000EC51383F080000200401002074040020DA
:101D70006000002024000020CDCC2C40000040401A
:101D8000280000203333534017B7D13864000020B7
:101D9000980500200AD7A33B0AD7233CCDCCCCBD65
:101DA00017B7D1B8CDCCCC3DCDCC4CBE3333733F7F
:101DB00048400021D522030602D54000504000E0F3
:101DC0004000491CC0B20829F5DB704730B5084D0A
:101DD0000020A978FFF7ECFF002404E02919C97856
:101DE000FFF7E6FF641C6978891EA142F6DC30BD6E
:101DF000EC030020F0B5464D0126686900287DD02F
:101E00000027444C6F61A07816287DD1FFF7DEFFD4
:101E1000617E814278D12079E17800020843410552
:101E20002046490D40380160A288211D9204520DC0
:101E30004260A279637912021A43E3791B041A43C0
:101E4000D203520D8260227AE37912021A431205FC
:101E5000520DC2608A885204520D0261A27A637ADE
:101E600012021A43E37A1B041A439203520D426191
:101E7000227BE37A12021A43D204520D82610A894C
:101E80005209C261A21D1346E77BA27B3F021743A2
:101E90007A05520D0262227CE77B12023A439204D9
:101EA000520D4262A77C8A893F043A43D203520D05
:101EB00082625A7B1F7B12023A431205520DC262A4
:101EC000227DE77C12023A435204520D0263A27D46
:101ED000098A120411438903490D4163597C1A7C14
:101EE00009021143C904490D8163217EE27D090283
:101EF00011434909C1630020AE6101E005E003E040
:101F000028622869401C2861F0BD2E62F0BD0000E7
:101F100098000020EC03002070B58AB000F046FB6A
:101F20001E49884238D302206946087101258D7107
:101F3000CD710320487108200924E4060090204652
:101F4000FEF7C5FB012203212046FEF7F8FB012125
:101F50008803FEF7D9FC00241148089403900C2054
:101F6000104E079004940594069403A93046FEF79A
:101F700061FF01220C493046FEF747FF0121304640
:101F8000FEF732FF1B20694608724C728D7202A860
:101F9000FEF750FC054884610AB070BD80841E00C5
:101FA000A0680600003801400501050098000020E7
:101FB00010B50020FFF79AF910BD08B5C100081A46
:101FC0000090411E009101D30846FAE708BD0000C9
:101FD00006460024E0B2002101F08EFB641C032CB5
:101FE000F8DD0B4DAF0000240CE0FF2000F048FEB0
:101FF0002846FFF7E2FFFF2000F038FE2846FFF7F3
:10200000DCFF641CB442F0DB3846FFF7D6FFEAE79A
:10201000400D030010B50349FEF7A8F800F004F8DE
:1020200010BD0000DB0FC93F70B50446134E144DC0
:1020300003E03146FEF79AF80446AC42F9D8114D58
:10204000AC4204DD3146FEF7E2F80446F8E7012031
:10205000C0070D490D4D8442204605D9FEF7DFF833
:102060002946FEF783F804E0FEF7D9F82946FEF783
:10207000D2F82146FEF7D3F870BD0000DB0FC9404F
:10208000DB0F49C0DB0F49407B81CF3E83F9A23F84
:10209000FEB500273D460024681CFEF747F9019075
:1020A0000E49A8000E58601CFEF740F90090A100F0
:1020B00071580198FEF7B3F80099FEF7B0F8084997
:1020C000FEF7ADF83946FEF751F8641C0746032CBD
:1020D000E9DB6D1C032DDEDBFEBD0000D801002016
:1020E0008D976E3F10B5FFF7D3FF0149086010BD13
:1020F00074000020F8B50020012400F0BBF8214D49
:10210000A8423ED1FF2000F0B5F8A84239D12046C0
:10211000022500F0B7F81C4948600968FEF732F95B
:1021200011D100260024B70028466D1C00F0AAF843
:102130001649A200C959641C8850032CF4DB761C94
:10214000032EEFDB00E00B2528466D1C00F09AF80B
:102150000F4C206028466D1C00F094F86060284603
:1021600000F090F8A060362000F08CF8FEF7F0F850
:1021700008490860372000F085F8FEF7E9F80649BD
:102180000860F8BD0100AA1274000020D8010020E8
:10219000440400206000002064000020F8B500F036
:1021A00075F800F055F800200124234901F034FDB2
:1021B000224920460225096800F06CF80026002418
:1021C000B7001F48A100C059415828466D1C00F0B7
:1021D00061F8641C032CF4DB761C032EEFDB194C36
:1021E00028466D1C216800F055F86E1C2846616871
:1021F00000F050F83046A16800F04CF812487F24F7
:102200000068E405002801D0214600E000213620C6
:1022100000F040F80D480068002801D0214600E099
:102220000021372000F036F80349FF2001F0F4FCCC
:1022300000F01CF8F8BD00000100AA127400002094
:10224000D801002044040020600000206400002029
:1022500010B50548FEF7BCF9042803D0FEF7E8F9ED
:10226000012010BD002010BD007C000810B5FEF755
:10227000DFF910BD02498000401800687047000077
:10228000007C000800B5FFF7F5FF00BD10B5FEF7B4
:10229000FDF910BD10B501F0BFFC10BD30B53F4CCD
:1022A0002178814277D006216218203AD27F625489
:1022B000491E0129F8DA207039493848FFF758F8E3
:1022C0007F25002802D06570032030BD3449334893
:1022D000C91DFFF74DF8002802D06570042030BDFD
:1022E0002F492E480E31FFF743F8002802D06570C1
:1022F000012030BD2A4929481531FFF739F8002857
:1023000002D06570022030BD25492448C91FFFF75F
:102310002FF8002802D06570092030BD20491F48E1
:102320000E39FFF725F8002802D065700A2030BD6D
:102330001B491A481539FFF71BF8002802D06570B1
:102340000B2030BD164915481C31FFF711F8002845
:1023500002D06570052030BD114910482331FFF7C8
:1023600007F8002802D06570062030BD0C490B48E4
:102370002A31FEF7FDFF002802D06570072030BD2E
:10238000074906483131FEF7F3FF002803D0657096
:10239000082030BDFFE70020FBE700009000002090
:1023A0004D3C0008F8B500F07FF8040064D001252A
:1023B000354F012C1ED13868002832D033480560D3
:1023C00000203860FFF7EAFEFFF794FE0020024687
:1023D0000C26034673432E4E00219B198E00491C88
:1023E0009A510329FADB401C0328F1DB00F0DEF8E8
:1023F000284908600221284E0B2C17D00A2C1CD02B
:102400002648042C21D0032C23D0072C00DB3D6070
:10241000052C23D0062C24D0072C2ED0082C2FD00E
:1024200022E000F0DDF8FEF7B7FDCBE71C4A05E03F
:102430001060081A30603D60E9E71A4A1068002809
:1024400001D00020F4E70120F2E705710F48056094
:102450000AE00E490D600021017105E000F01EFF49
:1024600001E000F00DFF30603868002804D03068CB
:10247000002801D105480560F8BD00F091FBF2E7A6
:10248000FFF796FDEFE700007C0000203C000020F5
:10249000380500205800002040000020CC02002019
:1024A000640000206000002070B53748374C006899
:1024B000002864D0364B37481A68510049088142D9
:1024C0000BDA9D686D006D08854206DA5D686D0067
:1024D0006D08854201DA00202FE02F4DAA4202D874
:1024E0009E68AE4206D95E6876007608864201DABA
:1024F000012022E0294EB24202DC9A68B24206DD97
:102500005A6852005208824201DA022015E05A68E5
:10251000AA4208D9814206DA9D686D006D0885429D
:1025200001DA032009E0B24208DD814206DA996847
:1025300049004908814201DA0420206000F036F8A1
:1025400006CC083C914200D0E060E268801A144A50
:1025500090420FD9002904D1124A904201D90C208F
:1025600005E0114A904204D97F2903D0FF20A060E2
:1025700000E0A1606160A068FFF790FE70BD7F2061
:10258000A0606060002070BD00000020800000207E
:102590009C030020CDCC4C3E333333BF3333333F29
:1025A000A086010060AE0A0020A1070000B501F07E
:1025B00019FB00BD1CB5232001214004FEF78CF956
:1025C00001216A46117100209071D0710320507171
:1025D000009169460148FEF77AF81CBD00140048D6
:1025E000F0B591B0FFF7E2FF0F9005460B900A900F
:1025F00000208100574B0CAA5B58401C5350032805
:10260000F7DB8CE00A980A95281A099001D101207D
:10261000099006226946432000F09EF9009801992E
:102620000002401800B2FDF781FE0790029803995E
:102630000002401800B2FDF779FE06900498059953
:102640000002401800B2FDF771FE434E089030784A
:1026500000F0B8FA20464149FDF762FD404881424A
:1026600001D9012100E000213068C207D20F914258
:1026700001D0401C3060384801780907090F002656
:102680000160B4000CAF06A839590059FDF784FE6B
:1026900004D238593349FDF769FD385106A8395934
:1026A0000059FDF76FFE04D238592E49FDF7AFFDF2
:1026B0003851E0192C4900F0EDFA38592B49400007
:1026C0004008FDF753FD014606AF38594000400869
:1026D000FDF762FE06D2FFF769FF0B901E4801214D
:1026E00001600BE00998FDF72CFE214900F022FB68
:1026F000024618483959201800F0DFFA761C032EDC
:10270000BFDB7D24E400FFF751FF401BA04203D252
:102710000A20FFF752FCF6E7FFF748FF05460B9843
:102720002C1A1448844205D20F981349281A88425B
:1027300000D267E70B98291A0E48814207D2002081
:10274000044A01468300401CD1500328FADB11B033
:10275000F0BD000050040020D800002024F4000048
:10276000127A0000CDCCCC3D000048440000C842A5
:102770000024F44880841E00C0E1E40010B58AB053
:1027800002206946087101208871C8710320400247
:102790000924E40600902046FDF799FF0422092150
:1027A0002046FDF7CCFF04220A212046FDF7C7FF93
:1027B00001214805FEF79CF801210846FEF7A4F820
:1027C00001218805FEF754F90121C805FEF750F9EB
:1027D0001020FEF741F90B48029000200F210491D0
:1027E0000390AB21084C059007900691089002A930
:1027F0002046FDF7D7FF01212046FDF7B7FF0AB0BD
:1028000010BD00001808700000540040F8B50F46D5
:102810001646012100F03AF80920800201230090B9
:10282000F2B25B06D0211248FDF7F4FF114D0020F3
:10283000287018E0002408E0641C600B05D00E49E5
:102840000868401C08600020F8BD04210848FDF716
:10285000A1FF0028F0D00648FDF7D6FF29788A00AE
:10286000B850491C29702878B042E3DB0120F8BD3C
:1028700000540040FC010020EC01002008B50122BA
:102880006946FFF7C3FF009808BD0000F3B581B0AB
:102890000F4600241A4D1B4E02E0641C600B22D12F
:1028A0000121C9033046FDF775FF0128F5D001204D
:1028B00040030090FAB20023D0213046FDF7AAFF72
:1028C00002E0641C600B0ED102213046FDF762FF6E
:1028D0000028F6D00198C1B23046FDF798FF07E016
:1028E000641C600B04D02868401C28600020FEBDDA
:1028F00001213046FDF74EFF0028F1D00120FEBD3A
:10290000EC0100200054004070B50D460024022167
:10291000FFF7BCFFE9B20C4D2846FDF778FF07E052
:10292000641C600B04D009490868401C086070BD35
:1029300040212846FDF72EFF0028F1D0012128462E
:10294000FDF71EFF70BD000000540040EC010020A8
:1029500010B5FFF713FF10BD10B5FFF757FF10BDFF
:1029600010B5FFF78BFF10BD10B5FFF7CDFF10BD01
:10297000F0B56E4C6E4E87B021683068FDF747FCAD
:10298000306061687068FDF742FC7060A168B068F3
:10299000FDF73DFC00240A27FF43B060A5007059F5
:1029A0003946FDF7B7FC641C7051032CF6DB614817
:1029B0000024006804AF00905F48A50040590099CA
:1029C000FDF72DFC641C7851032CF5DB5B4D04985E
:1029D0002C682146FDF723FCA968FDF71CFC01903B
:1029E00001990498FDF71BFC2146FDF7BFFB074644
:1029F00001990598FDF713FC6968FDF7B7FB0446DC
:102A000021460598FDF70BFC0199FDF704FCA86031
:102A100021460698FDF703FC3946FDF7FCFB2860CC
:102A2000069A01461046FDF7FAFB2146FDF79EFB8C
:102A3000686043487F270068FF050028414C3C48F8
:102A400026D0FEF739FC40494118A1425CD201462C
:102A500000243846FDF720FC0090A700F159FDF74F
:102A6000DEFB641CF051032C01DA0098F5E73148D5
:102A70003649006800F070F907460024A00031587C
:102A800040193A4600F019F9641C032CF6DB3BE0D0
:102A9000FEF712FC2C494118A14235D27F22D20503
:102AA000014600241046FDF7F7FB0090A700F159FE
:102AB000FDF7B5FB641CF051032C01DA0098F5E733
:102AC0001C483F210906006800F046F9074600242B
:102AD000A000315840193A4600F0EFF8641C032C6E
:102AE000F6DB1648FEF7E8FB01467F200024C00510
:102AF000FDF7D2FB0746A6003846A959FDF78FFB24
:102B0000641CA851032CF6DB1148C07900280AD0B8
:102B1000A9682868FEF768FB0E4C2060A968686801
:102B2000FEF762FB606007B0F0BD000044040020C7
:102B30002C0400205400002038040020F000002065
:102B40000000002032337300CCCCCCC00000A04188
:102B5000CC02002068040020F8B500250D4F00F0DD
:102B6000F3FE0024A6000A21B859C943FDF7D2FBA1
:102B700001460948094A301800F09FF8641C032CEC
:102B8000F0DB7D20C000FFF718FA6D1C642DE6DB3A
:102B9000F8BD00002C040020F00000209A99593F55
:102BA00010B50120FEF7A2FB10BD0EB500226B464A
:102BB0001A805A8001911A819A726946FEF794F838
:102BC0000EBD000070B50646FFF7F0FC194C2169F8
:102BD0002061451A3046FDF7B4FB1749FDF71FFB8E
:102BE00006460121204689070C3000F053F828469C
:102BF000FDF7A7FB054630466168FDF708FB29464F
:102C0000FDF70DFB0D49FDF70AFBE168FDF7AEFA94
:102C10000B49E060884205DDFF2000F031F87F209D
:102C2000C00503E0FF2000F021F8002060600020D4
:102C300070BD0000C40000208988883D6F12833A6F
:102C400048E1FA3E70B50D460446FFF7AFFC214659
:102C5000FDF766FA6C432009814203D90F2000F08A
:102C60000FF870BD0F2000F001F870BD10B5C0075F
:102C700003D001210148FDF772FD10BD001400488A
:102C800010B5C00703D001210148FDF76AFD10BD52
:102C90000014004870B504460120C0070D464540A9
:102CA0000E462068FDF778FB00D226602846216892
:102CB000FDF772FB00D2256070BD70B505460C466D
:102CC0007F2016461146C005FDF7A1FA2146FDF703
:102CD000A6FA044631462868FDF7A1FA2146FDF719
:102CE00045FA286070BD0000F3B5104E104F8C00FF
:102CF00083B031597869FDF792FA019030460C386B
:102D0000055938692946FDF78AFA0090B969039890
:102D1000FDF785FA0099FDF729FA0199FDF777FA91
:102D2000314635510C39085105B0F0BDD4050020AD
:102D30007001002010B5FDF7AFFA7F24E4052146AD
:102D4000FDF769FAA04201DD204610BD0121C90747
:102D50008842FAD9002010BD10B5FDF760FA7F2433
:102D6000E4052146FDF757FAA04201DD204610BDDB
:102D70000121C9078842FAD9002010BDF8B5164ACA
:102D800009018C1805462768A1686068FDF7EEF90F
:102D90000090E168FDF7EAF901467F20C005FDF7E4
:102DA0007BFA0099FDF73BFA064639462846FDF7BF
:102DB0002EFA3146FDF733FA3946FDF7D7F90546C5
:102DC0007F203146C005FDF722FA0099FDF727FA6A
:102DD000256060602846F8BD84040020F8B5164AD6
:102DE00009018C1805462768A1686068FDF7BEF9DF
:102DF0000090E168FDF7BAF901467F20C005FDF7B4
:102E00004BFA0099FDF70BFA064639462846FDF7BE
:102E1000FEF93146FDF703FA3946FDF7A7F90546F5
:102E20007F203146C005FDF7F2F90099FDF7F7F96B
:102E3000256060602846F8BDB40400200EB57D20F2
:102E4000C000FFF7BAF8FEF78BFBFFF7B3FBFF20DC
:102E5000FFF716FF00F0F0FD00F0AEFEE148FFF7CF
:102E6000ACF8FFF775FD00F0CDFB0021084600F03F
:102E700043FC0021012000F03FFC0021032000F072
:102E80003BFC0021022000F037FC00F031FD00F097
:102E90001FFD002836D0FEF7B1F8D3490120887312
:102EA000FFF720F9FFF726F900F0D6FCCF4E0024FB
:102EB0000020FEF715F9B168FDF7B1F905460120CC
:102EC000FEF70EF90146CA4FC8483A460830FFF7E8
:102ED000F4FE3A462946C548FFF7EFFEC548641C94
:102EE0008442E5DBC44D3068062400902046FDF79F
:102EF0001DFA074601460098FDF7CEF9A84203DD0A
:102F0000776104E0042037E0641E002CEEDC716978
:102F10000098FDF7C1F9B949884201DA02202BE097
:102F2000FFF75EFB00F044FCFFF716FEB4480068B4
:102F3000002801D007201FE0FFF738FB7063FFF780
:102F400035FBAA4C0546606B281AFDF7FAF9206399
:102F5000002802DC7F20C0052063AA49FDF75FF945
:102F6000A9492063884201DD062005E0A448656385
:102F70000068142802DD0820FFF72AF800F0E4FCBE
:102F8000FEF7F2FAFFF7F4FC0020FEF7A9F8974CE1
:102F9000A168FDF744F906460120FEF7A1F80146B5
:102FA000934F20463A460830FFF787FE97483A4647
:102FB000016820460C30FFF780FE95496069FDF7F7
:102FC0002EF90190934A01A82168FFF776FE3A4650
:102FD00031462046FFF771FE0121C9430198FDF7F4
:102FE00099F906468C492068FDF719F93146FDF735
:102FF0000EF90090E4688948844256DD7B4F786A78
:103000000646FDF793F98549FDF709F92146FDF7D5
:1030100006F90099FDF7AAF87349B4007031085118
:103020000646F86A002808D0002030398200401C8B
:103030008E500C28FADB0020F8626B48784910307B
:103040000059FDF7ECF8684F029040373959304687
:10305000FDF7DDF80299FDF789F839463E51303920
:1030600008510146FDF7DBF83E4601466036A019DF
:103070006C4AFFF722FE5D485C49406A401C48628A
:103080000C2812DB00204862306800240290A70060
:10309000F0590299FDF776F904D2F059029053489D
:1030A000611C8162641C0C2CF1DB504F38690028D4
:1030B00000D05A485C49FDF759F80646B86AFDF752
:1030C00035F9564C2146FDF7AAF8F968FDF7A7F83F
:1030D0000099FDF74BF83146FDF754F903D35349F6
:1030E0003868884201DA012000E000203861B86ABF
:1030F000FDF71CF92146FDF792F8F968FDF78FF806
:103100000099FDF733F8786049480068002801D03D
:10311000FFF748F93869002801D0082108E0454840
:103120000068002806D044480068002804D00F2119
:1031300042481EE00C211BE02B488079002807D074
:103140000026B869002817D0386A002802D004E0A9
:103150000126F6E7FFF72AFA3862FFF727FA396AFD
:10316000411A3648814202D90020B86138620821EC
:103170001C48FFF767FD2BE0F86900281FD0FFF718
:1031800015FA0446386A002809D13C62002E03D0A3
:10319000FF20FFF76BFD02E0FF20FFF771FD386AAB
:1031A000211A2648814201D8386A04E0F869401E95
:1031B000F861002038622249201A884208D9002E7E
:1031C00003D0FF20FFF75CFD02E0FF20FFF74EFD7C
:1031D000FEF7E0F87D24E400FFF7E8F9401BA04289
:1031E000FAD3ACE6A0860100CC0200202400002027
:1031F000492E7F3F88130000CDCC6C4033335340C1
:10320000EC010020BD3786350AD7A33C2000002002
:103210006666864029EA7F3F0000A03FCDCCCC3DCA
:1032200042F27C3F67B17F3F00006040CDCC2C4034
:1032300000000020A00000209C00002020A107002A
:10324000E0930400FFB581B007460E4610460A9D84
:10325000FCF7DDFF044628460499FCF7D8FF054635
:1032600031463846FCF7D3FF2946FCF7D8FF214604
:10327000FDF712F80499FCF779FF05B0F0BD70472F
:1032800005490868022804D001DA02200860401CC1
:1032900070470020FAE70000700100200C494868E0
:1032A000002804D0012807D002280AD10BE00848E2
:1032B00044308860012003E00548503088600220D7
:1032C0004860401C70470248383088600020F7E7AB
:1032D00070010020F0B506469E489F49C2789F487D
:1032E0009F4F0068B4008FB0002A03D0994A127A29
:1032F000002A11D0002803D03859FCF790FF38512C
:10330000022E1ADA964918310859C207401CD20F0A
:103310000851002A07D010E00028EDD1914800683C
:103320000028E9D0ECE78E4831464830005900F0DB
:1033300085FB01468A480C3001518B480025015914
:1033400087483C300059FDF71DF804D187480059E3
:10335000002800DD0125844801210059C9074840A3
:103360007F493C310959FDF70DF806D17F480159D5
:103370000120C007814200D90125022E0BDA7848CE
:103380000C3001593C300059FCF741FF40007849AE
:103390004008884227DC002D25D171480221543095
:1033A00005592846FCF7B6FF6D4960310959FCF70D
:1033B000DDFE6E4909590091FCF7D8FE6D49FCF716
:1033C0002EFF6D490959FCF72AFF6C490968FCF783
:1033D00026FF3959FCF7CAFE385161486030055163
:1033E0000C380099015160480C3001595C48201894
:1033F000FFF750FC6048183007595C4839460059BF
:10340000FCF70DFF5C490C3909590091FCF707FFE7
:10341000534D7F2101903C35C9053846FCF7F7FE36
:103420000099FCF7FCFE564909590391FCF7F7FE99
:103430000199FCF79BFE4A490959FCF797FE285170
:103440004D480C3000590290002801DC285972E0E8
:1034500040480AA9827807A8002A06D0464A243A9A
:1034600012590251444A183A05E03D4A603A12594D
:1034700002513B4A543A12590A5100597F22D2054F
:103480000090904208590190014604AF104608DAB6
:10349000FCF7BDFE0D903B480199005940004008E3
:1034A0000BE0FCF7B4FE0D9000990198FCF7F4FED8
:1034B00001463448005940004008FCF7B0FE0D9921
:1034C000FCF754FE38512648243001590398FCF784
:1034D0009EFE0299FCF7A3FE27494439C9690D9164
:1034E000FCF79DFE0E901E483030015918300259ED
:1034F00001921046FCF78BFE0299FCF790FE0099B2
:10350000FCF78DFE3959FCF78AFE0D99FCF787FE12
:103510000E99FCF77CFE1249019A30310A51104A8B
:103520000399243211513146FFF7DEFB0146285939
:10353000FCF71CFE285110494439C968FCF76FFE9E
:103540002851094801596019FFF7A4FB28590FB009
:10355000F0BD0000CC02002048E17A3F00000020CE
:103560005C05002068000020883C00085002002014
:10357000CDCCCC3D7EAA2A3EB401002054000020D0
:10358000380400205C020020F8B514480168144893
:10359000FCF782FE134CE061134801681348006891
:1035A000FCF77AFE7F25124EED053346114A12498B
:1035B0000095FFF747FEE060B04201DDE66002E003
:1035C000A84200DAE5600D48C078002804D00C4914
:1035D000E068FCF724FEE060F8BD00005400002025
:1035E00017B7513B70010020380000202400002054
:1035F000713DAA3F6666764000002040CC02002064
:103600006666663FFEB5022569460D710320487166
:1036100000248C71CC7101212846FDF769F9314FE6
:1036200031483946FFF7C1FA01210E023046FDF755
:103630005FF939462D4F3846FFF7B7FA2C4860211D
:103640000180012141808481068284601020092448
:10365000E406009069462046FDF739F80422114639
:103660002046FDF76CF822493846FDF785FA4020E0
:10367000009069462046FDF72AF8012206212046DF
:10368000FDF75DF81A491848FDF776FA802000909A
:1036900069462046FDF71BF8012207212046FDF769
:1036A0004EF813491048FDF7A5FA124C694620461A
:1036B0000095FDF70CF8012211462046FDF73FF872
:1036C0000B490948FDF7DEFA01210748FDF73EFAEC
:1036D00001210548FDF744FA01213846FDF736FA85
:1036E000FEBD0000CF0700000004004000200040A5
:1036F000E00500200004004810B50A4604461249BF
:103700001046FCF78CFDFCF723FE002801DA0020B0
:1037100003E00E49884200DD08460D49002C08D020
:10372000012C09D0022C0CD0032C01D180B24863AB
:1037300010BD80B2886310BD054980B24031086079
:1037400010BD80B20349F2E700E0F944CF07000062
:103750000004004000200040F8B506467F20C00568
:103760000C46814201DD044603E010498C4200D939
:103770000C4621460746FCF74AFD3146FCF74FFD53
:10378000054631460846FCF74AFD3146FCF747FD41
:103790002146FCF744FD2946FCF7E8FC0090394639
:1037A0006846FFF777FA0098F8BD0000000080BF78
:1037B00070470000FEB5254D254C2F68A668394698
:1037C0003046FCF72CFD234909680091FCF727FDE2
:1037D0006168FCF720FD39460190FCF720FD009957
:1037E000FCF71DFD3146FCF7C1FC074668680290F6
:1037F000266801463046FCF712FD0099FCF70FFDE4
:103800003946FCF708FDA0600299FCF708FD009915
:10381000FCF705FD3146FCF7A9FCAD6806462946D4
:103820000198FCF7FCFC0099FCF7F9FC3146FCF729
:10383000F2FC29462060FCF7F2FC0099FCF7EFFC53
:103840000199FCF793FC6060FEBD00003804002085
:103850005C05002054000020704700001B480168F0
:1038600001221143016001688907FCD5416889087C
:103870008900416041680907890FFBD10168012275
:1038800012069143016001688901FCD441683F231D
:103890001B049943416041687B23DB0399434160EA
:1038A00041680723DB04194341600168114301604B
:1038B00001688901FCD541680222114341604168D9
:1038C0000907890F0229FAD1704700000010024051
:1038D00010B57520FFF744F8682807D0982805D060
:1038E000782803D0722801D0002010BD012010BD1F
:1038F00010B580216B20FFF737F81248FEF75DFB0B
:1039000001216B20FFF730F87520FFF729F86828B0
:1039100001D0012400E000246420FEF74EFB1821B2
:103920001C20FFF721F8002C03D005211D20FFF7F4
:103930001BF818211B20FFF717F800211A20FFF7AA
:1039400013F810BD409C0000F0B593B00E226946FC
:103950003B20FFF701F8009801990002401800B2DF
:103960004042FCF7E3FC0746029803990002401826
:1039700000B22E4D4042FCF7D9FC0646049805994A
:103980000002401800B2FCF7D1FC0124E4076740B4
:10399000A860C0C5089809990002401800B2FCF759
:1039A000C5FC11900A980B990002401800B2FCF770
:1039B000BDFC10900C980D990002401800B2FCF765
:1039C000B5FC12901C3529681098FCF720FC10906B
:1039D00069681198FCF71BFC1190A9681298FCF714
:1039E00016FC1290119810996040109008466040A3
:1039F000119012982F466040002410AE183F12908C
:103A0000A50070590A49FCF70AFC0A49FCF707FCB3
:103A100070512146FFF7B2F978512146FFF7DEF9E0
:103A2000641C7851032CEBDB13B0F0BD2C04002098
:103A300000007A3D35FA8E3C7047000070B50C4AA4
:103A4000C9008C18054660680A492060FCF7E7FB4E
:103A5000064609492846FCF7E2FB3146FCF786FB9F
:103A60006060226801461046FCF780FB70BD0000D4
:103A7000E404002007715D3FE23B8A3DF8B5474D05
:103A8000044601682868FCF77DFC04D16168686819
:103A9000FCF778FC55D0206828606068404E68606C
:103AA00031466068FCF7BBFB3E4F3946FCF7B7FB7D
:103AB000054631462068FCF7B2FB3946FCF7AFFB00
:103AC0000646FEF7B1FA354C083420602846FEF76A
:103AD000ABFA60602846FEF79DFA05463046FEF7D1
:103AE00099FA2946FCF79BFB0646A06060680146F0
:103AF000FCF795FB054620680146FCF790FB29463C
:103B0000FCF734FB2849054688420FDD314608465C
:103B1000FCF785FB7F21C905FCF77DFB01462846A4
:103B2000FCF7BAFBFCF7AEFE054600E01F4D20682F
:103B30002946FCF774FB206029466068FCF76FFBA0
:103B40006060164C1A4E0834A068009070680099A6
:103B5000FCF765FBB768054661683846FCF75FFB14
:103B60002946FCF754FB134D686030680099FCF758
:103B700056FB064638462168FCF751FB3146FCF7F8
:103B800046FB7F24E405286021462846FFF782F89B
:103B90002146281DFFF77EF8F8BD0000DC0000205C
:103BA0000000824235FA8E3C6F12833AF4FD343FB6
:103BB000F00000205C04002010B50848064941616F
:103BC0000749CA6903231202120A44042243CA6144
:103BD00000218161036110BDFF117A0000E000E067
:103BE00004ED00E00A48436980690A494A68904246
:103BF00001D2121A01E01B1A9A18486008681218BC
:103C0000D008C300D21A0A608A681018886070470A
:103C100000E000E0F0010020064A10B580008018A6
:103C2000FCF70EFD042804D0FCF702FD0520FEF78A
:103C3000CFF910BD007C00080C0300040003000C49
:103C40000100010001000C0200020002000C010052
:103C5000010003000C0200020003000C030003003B
:103C600003000C0400040004000C04000300040022
:103C70000C0400030003000C0400030002000C0409
:103C800000030001000000009A99D93F9A99D93F9A
:103C90000000003F9A99D93F9A99D93F0000003F10
:103CA000C43C00080000002010020000540400087A
:103CB000643D000810020020E8070000400F0008E3
:103CC00091D2FFFF32012904810514CDCCCC3D25D2
:103CD0006666864043803F4930490C0110A94CA9D3
:103CE0000CE1033820C11AFF010128A0097B1452FE
:103CF0004185EB4141A9B40914C0011A5A20486317
:103D000040405AA008013613A8012A2084600D9E65
:103D1000D8893F2173943E52215A3E1AC0982904F3
:103D20002F803F9A99993E04412DF6285C3E045815
:103D3000086666863F3333B3243EC03FA4703D041B
:103D40003808CDCC0C3F7B146E042D6666663F6050
:103D50001AB4043AC068011B2D010203040435069D
:043D60000708090047
:04000005080000C926
:00000001FF
